:020000040800F2
:10000000B00B00209D010008A5010008A701000811
:10001000A9010008AB010008AD01000800000000C4
:10002000000000000000000000000000AF01000818
:10003000B101000800000000B3010008A12500087C
:10004000B7010008B7010008B7010008B7010008B0
:10005000B7010008B7010008B7010008B7010008A0
:10006000B7010008B7010008B7010008B701000890
:10007000B7010008B7010008B7010008B701000880
:10008000B7010008B7010008B7010008B701000870
:10009000B9310008B7010008B7010008B70100082E
:1000A000B7010008B7010008B7010008B701000850
:1000B000B701000875260008B7010008B70100085D
:1000C000B7010008B7010008B7010008B701000830
:1000D000B7010008B7010008B7010008B701000820
:1000E000B7010008B7010008B7010008B701000810
:1000F000B7010008B7010008B7010008B701000800
:10010000000000000000000000000000B70100082F
:10011000B7010008B7010008B7010008B7010008DF
:10012000B7010008B7010008B7010008B7010008CF
:10013000B7010008B701000800000000000000003F
:10014000B7010008B7010008B7010008000000006F
:10015000000000000000000000000000000000009F
:100160000000000000000000B7010008B70100080F
:10017000B7010008000000000000000000000000BF
:1001800000000000B7010008DFF80CD000F018F8FC
:1001900000480047E5310008B00B002006488047C2
:1001A00006480047FEE7FEE7FEE7FEE7FEE7FEE75C
:1001B000FEE7FEE7FEE7FEE70D26000889010008DE
:1001C000064C074D06E0E06840F0010394E80700A4
:1001D00098471034AC42F6D3FFF7DAFF58320008E4
:1001E000783200082DE9F04FDFF85CB100224FF0C3
:1001F00001084FF0030A4FF00F090BF1040E00BF86
:100200000B6808FA02F42340A3426ED14D68022D18
:1002100001D0122D0ED1D50800EB850CDCF8205052
:100220005607F70E09FA07F6B5430E69BE402E438E
:10023000CCF82060066855000F790AFA05FC07F033
:10024000030726EA0C06AF40374307604E68012ECD
:1002500005D0022E03D0112E01D0122E0ED18668A9
:10026000CF6826EA0C06AF40374387604668A6434E
:100270000C79C4F30014944034434460C6688C681D
:1002800026EA0C06AC403443C4604C68E40055D503
:100290002E4CA56945F00105A5612D4C22F0030502
:1002A0002E19B46895072F0F09FA07F5AC43B0F182
:1002B000904F04D0274DA84203D1012517E0002517
:1002C00015E0254DA84201D1022510E0234DA8429A
:1002D00001D103250BE0224DA84201D1042506E0FF
:1002E000204DA84202D1052501E027E00625BD40AA
:1002F0002543B560DBF800405D464E689C43F6033D
:1003000000D51C432C60DEF8004075464E689C43C7
:10031000B60300D51C432C600B4D08352C684E6885
:100320009C43F60200D51C432C60074D0C352C680D
:100330004E689C43B60200D51C432C60521C102A08
:10034000FFF45EAFBDE8F08F0004014000100240F2
:10035000000001400004004800080048000C00486C
:100360000010004800140048014800687047000071
:10037000FC00002002480168491C01607047000031
:10038000FC000020074810B5016841F01001016031
:10039000032000F059F8002000F006F800F016F8ED
:1003A000002010BD0020024010B5044600F0EEFF12
:1003B0004FF47A71B0FBF1F001F009FB0022214605
:1003C000501E00F021F8002010BD0000074810B5B5
:1003D000816941F001018161072000F035F80022B8
:1003E000BDE810401146501E00F00EB8001002404B
:1003F00000F01F02012191404009800000F1E0203F
:10040000C0F8001170470000F0B40E4B1B680C469A
:10041000C3F30223C3F10705042D00D90425191DD8
:10042000072901D2002300E0DB1E012606FA05F1B0
:10043000491E214099409E40761E16403143F0BC33
:1004400001F0C8BE0CED00E0064900F007020868A4
:100450004FF6FF03184040EA0220034A10430860A9
:10046000704700000CED00E00000FA0510B50C0626
:1004700007D501F07F01C1EBC10100EB81002830FD
:1004800005E0C1EBC10100EB810000F5847099B279
:1004900032B101228272C180190C0181002010BD8D
:1004A000002282728180F9E7C1EBC10200EB820277
:1004B000D0F81C02926B02F0C4BBC1EBC10200EB8E
:1004C0008202D0F81C02D2F8182102F00ABC2DE9F1
:1004D000F04301F07F03C3EBC3020C0600EB820282
:1004E00001D5283201E002F58472C90913705170F8
:1004F00090F8E811012946D0012180F8E811977A97
:1005000048F6BF76002F577848F280034BF68F7974
:1005100048F2C0044CF2800548F68F7136D08FB394
:100520001778D0F800C03CF827805FEA484807D524
:100530003CF8278008EA010848EA05082CF82780DB
:100540001778D0F800C03CF827805FEA486807D5E4
:100550003CF8278008EA010848EA04082CF82780BC
:1005600092F800C0076837F82C400C402C4327F85D
:100570002C401478056835F824103140194325F8CB
:10058000241025E032E00220BDE8F083A7B11778FF
:10059000056835F827C05FEA4C6C07D535F827C0E9
:1005A0000CEA010C4CEA040C25F827C01278046808
:1005B00034F82210314011E01678046834F82670BF
:1005C0007F0405D534F826700F402F4324F8267099
:1005D0001278046834F8221001EA0901194324F85A
:1005E0002210002180F8E8110846CDE792F800C0FB
:1005F000076837F82C805FEA484807D537F82C8021
:1006000008EA010848EA050827F82C8017780568E9
:1006100035F827C05FEA4C6C07D535F827C00CEADF
:10062000010C4CEA040C25F827C01578D0F800C05E
:100630003CF825700F4027432CF825701578046886
:1006400034F8251001EA0901194324F82510ADE713
:10065000F0B50A0601F07F0305D5C3EBC30200EB3A
:100660008202283205E0C1EBC10200EB820202F5F2
:100670008472002494701370C909517090F8E811C5
:10068000012921D0012180F8E8115178036800295F
:10069000117848F68F7648F2800533F8217015D02E
:1006A0007F0607D533F82170374048F2C00637433C
:1006B00023F821701278036833F8221048F6BF76C9
:1006C000314081F0300114E00220F0BD7F0407D5F5
:1006D00033F8217037404CF28006374323F82170FD
:1006E0001278036833F822104BF68F76314081F48C
:1006F0004051294323F8221080F8E8410020F0BD42
:100700002DE9F04F01F07F05C5EBC5040E0600EBA7
:10071000840401D5283401E004F58474C9092570E6
:100720006170E260E37090F8E81101290DD00121B9
:1007300080F8E811E27848F68F114AB1012A21D0F9
:10074000022A0DD0032A26D112E00220BDE8F08F44
:100750002278036833F822500D4045F400710EE012
:100760002378026832F823500D4022F8235012E01B
:100770002278036833F822500D4045F4C06123F815
:10078000221008E02378026832F823500D4045F427
:10079000806122F823102378066836F8235048F643
:1007A0008F710D4048F2800215431D4326F82350F7
:1007B000A77A4FF4806348F6BF794BF68F7A48F2F8
:1007C000C0054CF28006EFB3D0F800802778C3460E
:1007D00038F827C048F280180CEA010C4CEA080CE3
:1007E0002BF827C0E78827F0010C0768BB46B7F84D
:1007F000507094F800809E4607EBC80703EB470350
:100800004BF803C0238923F0010703689B46B3F824
:1008100050C094F80080042303EBC8039C440EEB03
:100820004C0C4BF80C7063780768002B237837F872
:1008300023C04FEA4C4C7DD0BCF1000F09DA37F8E9
:1008400023C000E033E00CEA010C4CEA060C27F868
:1008500023C02378076837F823C05FEA4C6C07D5BC
:1008600037F823C00CEA010C4CEA050C27F823C02A
:100870002578076837F825300B40334327F82530B3
:100880002578036833F8251001EA0901114323F89C
:1008900025102378056835F8231001EA0A01114371
:1008A00025F82310002180F8E81108464EE7677804
:1008B0000FB3A68826F001070668B6F850C094F872
:1008C00000800CEBC80C03EB4C03F7502678036850
:1008D00033F826707F0605D533F826700F402F4376
:1008E00023F826702478036833F8241001EA0901FC
:1008F00081F020017EE0A58825F001070568A94662
:10090000B5F850C094F80080042505EBC80565448F
:1009100003EB450C49F80C700568B5F8507094F875
:1009200000C04FF0060808EBCC0C674403EB47030C
:100930005F1900E02EE0E3683E2B0BD9C3F34F159F
:10094000DB0601D16D1EADB24FF4004343EA8523AF
:100950009BB209E0C3F34F05DB0701D06D1CADB2BC
:100960004FF6FF7303EA85233B602378056835F86B
:1009700023707F0405D535F823700F40374325F8E1
:1009800023702478036833F8241001EA0A0181F403
:1009900040512FE0BCF1000F07DA37F823C00CEA12
:1009A000010C4CEA060C27F823C02378066836F8B9
:1009B00023707F0605D536F823700F402F4326F8A5
:1009C00023702378066836F823700F402F4326F8EB
:1009D00023702378056835F8231001EA0A0181F4B1
:1009E0004051114325F823102478036833F824106C
:1009F00001EA0901114323F8241053E72DE9F043DC
:100A000001F07F01C1EBC10400EB8404C4E946237B
:100A10000022C4F8202184F8092184F8081190F8F4
:100A2000E81104F58474012909D0012180F8E81146
:100A30006369E1688B4205D95B1A636104E00220B7
:100A4000BDE8F08319466261A77A06234FF48065FA
:100A50006E014FF6FF7927B1677817B1012F23D0C8
:100A60002DE00768B7F850C094F8008003EBC80386
:100A7000634405EB4303DD193E290ED9C1F34F133F
:100A8000C90607D046EA832189B201E009EA832139
:100A9000296014E05B1E9BB2F4E7C1F34F03C90762
:100AA000F4D05B1C9BB2F1E70668B6F8507094F87E
:100AB00000C003EBCC033B4405EB4303F150237828
:100AC000056835F823104BF68F74214081F44051AE
:100AD00048F28004214325F8231080F8E821002003
:100AE000AEE730B590F8E821012A0CD0012480F857
:100AF000E8410B0601F07F0207D5C2EBC20300EB11
:100B00008303283307E0022030BDC1EBC10300EBB3
:100B1000830303F58473C9099C701A70597048F2F5
:100B2000800352B10468002934F8221011D048F62D
:100B3000BF75294081F0100110E0026811884BF662
:100B4000BF74214081F4805181F01001194311805C
:100B500007E04BF68F75294081F48051194324F842
:100B60002210002180F8E811084630BD2DE9F0413F
:100B7000064601F07F00C0EBC00106EB810438346B
:100B80004FF00008A4E80C01012104F81B1C04F834
:100B90001C0D96F8E801012808D086F8E811E568F0
:100BA0006069A84205D9401B606105E00220BDE8EC
:100BB000F0810546C4F81480A07A4FF4806728B10C
:100BC00061780620A1B1012936D03FE0ABB2A288FE
:100BD0002169306801F0D1FC3068B0F850102278FB
:100BE000022303EBC202114407EB4101455056E0DA
:100BF0003168B1F8502023783E2D00EBC30010443B
:100C000007EB400001440BD9C5F34F10EA0601D1B0
:100C1000401E80B24FF4004242EA802080B209E0D8
:100C2000C5F34F00EA0701D0401C80B24FF6FF72B7
:100C300002EA8020086009E03168B1F8502023788A
:100C400000EBC300104407EB40000D5021783068E2
:100C500030F82110490601D5228900E0E288ABB2C4
:100C6000216901F08AFC617848F68F7011B1012981
:100C70000BD014E02178326832F82130034048F27A
:100C8000C000034322F8213009E02278316831F8AE
:100C9000223003404CF28000034321F822302178B7
:100CA000326832F8210048F6BF73184080F03000F7
:100CB00048F28003184322F8210086F8E8810020DA
:100CC00075E710B504460068B0F84400000402D58A
:100CD000204601F08FFA2068B0F8441049050AD583
:100CE0004FF6FF31A0F84410204600F0D9F800215B
:100CF000204600F0EAF82068B0F84410490403D513
:100D00004BF6FF71A0F844102068B0F84410890435
:100D100003D54DF6FF71A0F844102068B0F84410D8
:100D2000C90411D530F8401F21F004010180216869
:100D30004FF43D40A1F84000204600F0BEF8216885
:100D40004EF6FF70A1F844002068B0F84410090581
:100D500018D54FF2FF71A0F84410206830F8401FFA
:100D600041F008010180206830F8401F41F0040183
:100D700001802068B0F84400C043C00402D520467A
:100D800000F0C6F82068B0F84410890506D54FF683
:100D9000FF51A0F84410204600F093F82068B0F806
:100DA0004410C90503D54FF6FF61A0F8441010BDEB
:100DB00070B504004FF0000508D0022084F8E90166
:100DC000204600F043F8012300200EE0012070BD12
:100DD000C5EBC50104EB810181F8293001F8285FDA
:100DE0006D1CC870C860086148616168A942EFD88D
:100DF000002110E0C1EBC10204EB820282F809017C
:100E000082F8081182F80B01C2F81401C2F8180127
:100E1000491CC2F81C0162688A42EBD82168A1F81B
:100E200040302168A1F840002168A1F84400216801
:100E3000A1F8500022684FF43D41A2F8401084F818
:100E4000240084F8E901002070BD000000B50068AE
:100E5000114985B088421CD14FF4C0500090022047
:100E6000019000200290032003900E200490694618
:100E70004FF09040FFF7B6F90848C16941F400010E
:100E8000C161002211461420FFF7BEFA1420FFF7BB
:100E9000AFFA05B000BD0000005C00400010024049
:100EA00010B504460121D0F81C0201F0D1FFD4F89E
:100EB0001C02BDE8104001F09ABFD0F81C0201F0FE
:100EC000B5BFD0F81C0201F0B7BF90F8E821012AA5
:100ED0000AD0012280F8E82141B180F824100021D5
:100EE00080F8E811084670470220704702688021A8
:100EF000A2F84C10F3E7D0F81C2200F5F67110466A
:100F000001F0B0BF10B50121AFF30080002010BD8B
:100F100010B50446D0F81C0201F0DFFFA0690028DC
:100F200004D00348016841F00601016010BD0000D3
:100F300010ED00E02DE9F047044600686E4DC00357
:100F400062D5E86940F08050E8616C4E306840F44A
:100F500080703060FFF708FA074604E0FFF704FAF4
:100F6000C01B642825D83068C005F7D5286AA18839
:100F700000F4407001F440710126884207D0286ACD
:100F80005F4920F440700E6000220A6028626068A9
:100F9000B0F5807F32D1FFF7E7F9074641F2883993
:100FA0004FF0020808E000BFFFF7DEF9C11B49451A
:100FB00002D90320BDE8F08798FAA8F1B1FA81F1CF
:100FC00041F040014046B6EB511F01D129680BE0CA
:100FD00090FAA0F1B1FA81F141F04001B0EB511F5C
:100FE00001D1296A00E0696A98FAA8F0B0FA80F0A5
:100FF00000F01F0206FA02F00142D5D0286A6168AB
:1010000020F44070084328622078C00705D0286B80
:10101000A16820F00300084328632078800705D5E5
:10102000286BE16820F440300843286320784007AB
:1010300005D5286B216920F44020084328632078D7
:10104000800605D5286BE16920F01000084328636D
:101050002068800305D56868A16B20F480000843F0
:1010600068602078400605D5286B216A20F02000B2
:10107000084328632078000705D5286B616920F4B0
:101080004010084328632078C00605D5286BA16965
:1010900020F44000084328632088800505D568684F
:1010A000E16A20F40000084368602078000605D556
:1010B000E86A616A20F4F8700843E8622088C00595
:1010C00005D5E86AA16A20F478500843E8622088D0
:1010D000C00405D5286B216B20F480700843286379
:1010E0002088800405D5286B616B20F400700843CC
:1010F000286300205EE700000010024000700040FE
:10110000400442422DE9F047DFF8789205460E464A
:10111000D9F80000022300F007070120410442062D
:10112000994C41F28838B74271D2D9F800C02CF0FE
:10113000070C4CEA060CC9F800C0D9F8007007F09B
:101140000707B7426FD12E78B60705D56668AF6836
:1011500026F0F0063E4366602E78F60756D06E689D
:10116000012E0BD0022E1ED093FAA3F1B1FA81F119
:1011700041F02001490924D0216823E091FAA1F22D
:10118000B2FA82F242F02002520901D0226800E055
:10119000626A91FAA1F1B1FA81F101F01F01884070
:1011A000024240D017E092FAA2F1B1FA81F141F087
:1011B0002001490901D0216800E0616A92FAA2F297
:1011C00002E0616A93FAA3F2B2FA82F202F01F021D
:1011D0009040014227D0606820F0030030436060F7
:1011E000FFF7C2F806466868012809D0022847467A
:1011F00013D01EE0FFF7B8F8801BB84201D992E087
:1012000047466068C0F381000128F3D1A1E015E0F2
:10121000FFF7AAF8801BB84273D86068C0F381005A
:101220000228F5D195E092E0FFF79EF8801BB842C6
:1012300079D8606810F00C0FF6D18AE02F78BF07DC
:1012400007D56768D5F808C027F0F00747EA0C070C
:1012500067602F78FF076DD06F68012F0BD0022FCA
:101260001ED093FAA3F1B1FA81F141F020014909AE
:1012700024D0216823E091FAA1F2B2FA82F242F07E
:101280002002520901D0226800E0626A91FAA1F1BD
:10129000B1FA81F101F01F018840024257D017E0F6
:1012A00092FAA2F1B1FA81F141F02001490901D08D
:1012B000216800E0616A92FAA2F202E0616A93FAA0
:1012C000A3F2B2FA82F202F01F02904001423ED035
:1012D000606820F0030038436060FFF745F8074678
:1012E0006868012807D0022811D01FE0FFF73CF8FA
:1012F000C11B414517D86068C0F381000128F5D1B2
:1013000018E010E0FFF730F8C11B41450BD86068CA
:10131000C0F381000228F5D10CE000BFFFF724F8EC
:10132000C11B414502D90320BDE8F087606810F079
:101330000C0FF3D1D9F8001021F007013143C9F89F
:101340000010D9F8000000F00700B04201D00120E1
:10135000EAE72878400705D56068E96820F4E0608E
:10136000084360602878000706D56068296920F482
:10137000605040EAC10060600020FFF715F80020CF
:10138000D2E70000002002400010024010B500F03B
:1013900017F808494968F02292FAA2F201F0F00128
:1013A000B2FA82F2D140044A515CC8400349086055
:1013B00010BD000000100240283200083400002058
:1013C000144B10B55A68144802F00C0104291DD0C2
:1013D00008291BD14FF4701494FAA4F402F470118C
:1013E000B4FA84F4E1400D4CDB6A615C0F2494FA9A
:1013F000A4F403F00F03B4FA84F4E340074C103470
:10140000D203E35C03D5B0FBF3F0484310BD0448BE
:10141000484310BD0010024000127A003832000824
:1014200000093D002DE9F05F05460078FE4EC0073B
:101430004FF000084FF0010425D070686704C0F336
:101440008100012807D07068C0F3810002281BD1F9
:101450007068C00318D597FAA7F0B0FA80F040F092
:101460002000400901D0306800E0706A97FAA7F1C7
:10147000B1FA81F101F01F0104FA01F1084270D0C4
:10148000686801287ED16CE086F80280FEF76CFF68
:10149000824641F2883905E0FEF766FFA0EB0A01BB
:1014A000494570D897FAA7F0B0FA80F040F02000D4
:1014B000400901D0306800E0706A97FAA7F1B1FAEC
:1014C00081F101F01F0104FA01F10842E4D1287909
:1014D000B070F06AA96820F00F000843F0626868F5
:1014E000012803D0FEF740FF824625E0FEF73CFFCF
:1014F000824605E0FEF738FFA0EB0A014945D0D847
:1015000097FAA7F0B0FA80F040F02000400901D02F
:10151000306800E0706A97FAA7F1B1FA81F101F042
:101520001F0104FA01F10842E4D01AE0FEF71CFFA3
:10153000A0EB0A014945B4D897FAA7F0B0FA80F0B9
:1015400040F02000400901D0306800E0706A97FA4E
:10155000A7F1B1FA81F101F01F0104FA01F108428B
:10156000E4D12878DFF8C49280074FF0020733D522
:1015700070684FF0F80B10F00C0F0AD07068C0F3D1
:10158000810001E097E037E1022826D17068C003AE
:1015900023D497FAA7F0B0FA80F040F02000400979
:1015A00001D0306800E0706A97FAA7F1B1FA81F1D2
:1015B00001F01F0104FA01F1084202D02869012854
:1015C00079D13068696920F0F8029BFAABF0B0FA83
:1015D00080F081400A43326051E0286968B3C9F85D
:1015E0000040FEF7C1FE824606E000BFFEF7BCFEEB
:1015F000A0EB0A0064289ED897FAA7F0B0FA80F012
:1016000040F02000400901D0306800E0706A97FA8D
:10161000A7F1B1FA81F101F01F0104FA01F10842CA
:10162000E4D030689BFAABF26969B2FA82F220F03A
:10163000F80091400843306021E0C9F80080FEF7CF
:1016400093FE824606E000BFFEF78EFEA0EB0A0086
:101650006428D0D897FAA7F0B0FA80F040F02000C4
:10166000400901D0306800E0706A97FAA7F1B1FA3A
:1016700081F101F01F0104FA01F10842E4D1287858
:1016800000075ED56A48A96969B30460FEF76CFE7D
:10169000824605E0FEF768FEA0EB0A006428AAD89F
:1016A00097FAA7F0B0FA80F040F06000B4EB501F5A
:1016B00002D130680CE07AE197FAA7F0B0FA80F036
:1016C00040F06000B7EB501F01D1306A00E0706A53
:1016D00097FAA7F1B1FA81F101F01F0104FA01F2C2
:1016E0001042D7D02DE0C0F80080FEF73DFE8246C4
:1016F00006E000BFFEF738FEA0EB0A0064287BD8A6
:1017000097FAA7F0B0FA80F040F06000B4EB501FF9
:1017100001D130680BE097FAA7F0B0FA80F040F002
:101720006000B7EB501F01D1306A00E0706A97FA91
:10173000A7F1B1FA81F101F01F0104FA01F21042A0
:10174000D8D1287840076ED5F06940F08050F0611C
:10175000DFF8E0B0DBF8001041F48071CBF8001046
:10176000FEF702FE824605E0FEF7FEFDA0EB0A0052
:10177000642841D8DBF80000C005F5D5306A20F0B8
:1017800005003062FEF7F0FD834641F2883A05E03D
:10179000FEF7EAFDA0EB0B0151452DD897FAA7F013
:1017A000B0FA80F040F04000B4EB501F01D1306837
:1017B0000BE097FAA7F0B0FA80F040F04000B7EBEA
:1017C000501F01D1306A00E0706A97FAA7F1B1FAB0
:1017D00081F101F01F0104FA01F10842D8D1306A09
:1017E000E96820F0050008433062E868012804D069
:1017F000FEF7BAFD83463DE082E0FEF7B5FD834685
:1018000006E000BFFEF7B0FDA0EB0B01514577D815
:1018100097FAA7F0B0FA80F040F04000B4EB501F08
:101820000AD1306814E046E0001002400000424255
:10183000800442420070004097FAA7F0B0FA80F0AE
:1018400040F04000B7EB501F01D1306A00E0706AF1
:1018500097FAA7F1B1FA81F101F01F0204FA02F13F
:101860000842CFD027E000BFFEF77EFDA0EB0B01C2
:10187000514545D897FAA7F0B0FA80F040F0400003
:10188000B4EB501F01D130680BE097FAA7F0B0FA23
:1018900080F040F04000B7EB501F01D1306A00E00B
:1018A000706A97FAA7F1B1FA81F101F01F0204FA08
:1018B00002F10842D8D1E869E0B37168C1F381014F
:1018C000022975D04FF000770228C9F8608003D054
:1018D000FEF74AFD054653E0FEF746FD804605E06B
:1018E000FEF742FDA0EB0800642846D897FAA7F05F
:1018F000B0FA80F040F02000400902D0306801E0EA
:101900003BE0706A97FAA7F1B1FA81F101F01F018B
:1019100004FA01F10842E3D1D5E9081008437168DF
:1019200021F4741108437060C9F86040FEF71CFD93
:10193000054606E039E000BFFEF716FD401B6428AF
:101940001BD897FAA7F0B0FA80F040F020004009C9
:1019500001D0306800E0706A97FAA7F1B1FA81F11E
:1019600001F01F0104FA01F10842E5D01DE000BFBB
:10197000FEF7FAFC401B642802D90320BDE8F09F63
:1019800097FAA7F0B0FA80F040F02000400901D0AB
:10199000306800E0706A97FAA7F1B1FA81F101F0BE
:1019A0001F0104FA01F10842E2D10020E6E7FFE757
:1019B0000120E3E74FF0E0210428086903D020F07C
:1019C00004000861704740F00400FAE7704710B562
:1019D000401EB0F1807F01D3012010BD4FF0E02404
:1019E00060610F21601700F0F5FB0020A061072067
:1019F0002061002010BD10B5FFF7E8FF10BD704753
:101A00007047000030B590F83820012A1FD001221D
:101A100080F838200268536894680E4DAA4202D0BC
:101A20000D4DAA4203D123F470054B682B4323F0DC
:101A300070050B6889682B4324F0800421435360B0
:101A400002689160002180F83810084630BD0220FD
:101A500030BD0000002C01400034014010B50400EE
:101A600003D094F8390010B104E0012010BD2046E5
:101A700000F00CF8022084F83900211D206800F0E5
:101A8000FFFD012084F83900002010BD00B500687A
:101A90000F4985B0884218D10E48C16941F0020152
:101AA000C1614020009002200021CDE90101CDE973
:101AB000031069460848FEF795FB002211461D20D9
:101AC000FEF7A2FC1D20FEF793FC05B000BD000050
:101AD00000040040001002400008004870B50446B1
:101AE00090F83800012817D0012584F838500220DA
:101AF00084F8390022689068364E304020F47F40E8
:101B000090600868502839D00DDC20285BD005DCB7
:101B100098B3102843D153E0022070BD302855D02F
:101B200040283CD141E0602830D070280CD0B0F57E
:101B3000805F03D0B0F5005F31D112E0206881688A
:101B4000244A7032114016E0CB68D1E901212068A7
:101B500000F0F5FD21688868304040F0770088602B
:101B60001DE0CB68D1E90121206800F0E8FD206884
:101B7000816841F48041816011E01EE0CA684968D3
:101B8000206800F0EEFD5021206806E0CA68496830
:101B9000206800F02DFE6021206800F0DAFD84F856
:101BA0003950002084F8380070BDCA684968206840
:101BB00000F0D7FD40212068EFE700212068ECE726
:101BC00010212068E9E720212068E6E7302120681D
:101BD000E3E7000088FFFEFF2DE9F041002100F05F
:101BE000DBF981B241F288300024274B274A814239
:101BF00001D9507850B1107823F81010401C1070A3
:101C00001078082800D11470BDE8F0814FF47A757F
:101C10001D4900206F00147011F1100133F810609D
:101C2000AE4202D223F8105003E0BE4201D923F89D
:101C3000107033F81060A6F57A7621F81060401C19
:101C4000C0B20428EAD30C811D8940F2DC508542E1
:101C500001D910250D815D89854203D90D8945F093
:101C600020050D819D89854203D90D8945F04005E8
:101C70000D81DB89834203D9088940F08000088107
:101C800001205070BCE70000340500203200002025
:101C90002DE9F041044690F838000D4601283DD06A
:101CA000012684F83860022084F83900AAB3042A97
:101CB00046D02068082A55D0D5E90027E968036A8C
:101CC00023F480530362D0F81CC0036A2CF4407CD8
:101CD0004CEA07274FF6FF7C27F470470CEA0131E6
:101CE00039434FF4204723F4204307EA02321A43D2
:101CF000C16102622068C16921F44061C16120684C
:101D0000C169AA6841EA0221C0F81C1084F8396050
:101D1000002084F83800BDE8F08101E00220FAE7F5
:101D2000D5E90012EB68206800F02CFD206881697D
:101D300021F00C01816120688169AA6811430FE0DC
:101D4000D5E90012EB68206800F064FD2068816925
:101D500021F44061816120688169AA6841EA022119
:101D60008161D3E7D5E9002C2F7B016A21F48071D2
:101D70000162C169036A21F0030141EA0C0121F00B
:101D8000F00C39074FF420674CEA116123F420630B
:101D900007EA02221A43C16102622068C16921F088
:101DA0000C01C1612068C169AA681143ACE710B594
:101DB000040003D094F8390010B104E0012010BDF4
:101DC000204600F00CF8022084F83900211D20681C
:101DD00000F056FC012084F83900002010BD704747
:101DE00010B50268044631B1042908D0082915D07D
:101DF0000C2908D116E0D06840F0020002E0D0685B
:101E000040F00400D0600122206800F08DFC2068C2
:101E1000016841F001010160002010BDD06840F070
:101E20000800EFE7D06840F01000EBE770B504461B
:101E3000006801694FF00005C943890715D4C168DE
:101E4000C943890711D4E91E016101202076206869
:101E500080698007204602D0FFF7BEFE04E000F054
:101E600098F8204600F096F8257620680169C94365
:101E7000490717D4C168C943490713D46FF0040157
:101E80000161022020762068806910F4407F20469E
:101E900002D0FFF7A1FE04E000F07BF8204600F03E
:101EA00079F8257620680169C943090716D4C16805
:101EB000C943090712D46FF008010161042020769C
:101EC0002068C0698007204602D0FFF785FE04E045
:101ED00000F05FF8204600F05DF825762068016983
:101EE000C943C90617D4C168C943C90613D46FF0E2
:101EF00010010161082020762068C06910F4407F3D
:101F0000204602D0FFF768FE04E000F042F82046C9
:101F100000F040F8257620680169C943C90708D157
:101F2000C168C943C90704D1891E0161204600F078
:101F300032F820680169C943090609D4C168C94358
:101F4000090605D46FF0800101612046FFF757FDB7
:101F500020680169C943490609D4C168C9434906D3
:101F600005D46FF040010161204600F089F8206837
:101F70000169C94389060BD4C168C943890607D4DE
:101F80006FF0200101612046BDE87040FFF738BDC9
:101F900070BD70477047704790F838300022012BB1
:101FA0000AD0012380F8383041B1042909D008292A
:101FB0000AD00C290DD10AE00220704701684A6B53
:101FC00007E001688A6B04E00168CA6B01E0016800
:101FD0000A6C002180F838101046704770B504462E
:101FE00090F83800012815D0012584F838500220D7
:101FF00084F839002368986820F07002486810431C
:102000001E4A10400A6802439A60486810F00F0F99
:1020100002D02DE0022070BD0011082828D2DFE890
:1020200000F0272727270B1C22040B69D1E9022186
:10203000206800F084FB1BE02068026A036A23F03A
:102040000103036220688369096923F0F00343EA0E
:1020500001118161206802620AE00A6989682068CA
:1020600000F07FFB04E00A698968206800F0C0FB8B
:1020700084F83950002084F8380070BDF8FFFEFF66
:102080007047000070B5274886B0416941F40011DF
:102090004161416941F400214161416941F480019C
:1020A0004161416941F400314161416941F480215C
:1020B0004161372000901C480024CDE901041B4EEB
:1020C00069463046FEF78EF84FF6087000900125FD
:1020D000CDE90154694630460394FEF783F8CDE913
:1020E00000544FF09046694630460294FEF77AF865
:1020F000E02000900220CDE901040520CDE9034055
:1021000069463046FEF76EF8C02000901220CDE9F7
:1021100001050420CDE9034069460548FEF762F851
:1021200006B070BD00100240000012100010004800
:102130000004004830B51B4891B01949016047219F
:102140000024C0E901144FF6FF71C0E90314FFF742
:1021500085FC4FF480500C900CA91248FFF7BEFC90
:102160001048FFF724FE042000905020022504941C
:10217000CDE9010569460B48FFF730FF099409A92D
:1021800008480B94FFF73EFC0120CDE906040595B5
:10219000002205A903480894FFF77AFD11B030BD6D
:1021A000000400405005002010B5002206490748F1
:1021B00000F024FD0649054800F0B3FEBDE81040DC
:1021C000024800F0FBBE0000000000208C0500204B
:1021D000480000200907090E002806DA00F00F0069
:1021E00000F1E02080F8141D704700F1E02080F835
:1021F000001470472DE9FC5F4FF000080446ADF86D
:10220000008048F60F7B4FF002094FF4806697E19B
:10221000BDF8041011F00F072DD030F82710ADF8DD
:102220000010BDF8001009047AD530F8272040F6D8
:102230008F710A4020F82720C7EBC70004EB800508
:1022400095F8120105F5847500286AD02978206870
:1022500030F82120B0F8503052047DD509EBC1018F
:10226000194406EB4101415AC1F309015FEA010A31
:1022700073D0EA88D1E0BDF80410C9062AD40188D9
:1022800001EA0B010180206804F12805B0F8502014
:102290002B7809EBC301114406EB4101405AC0F30E
:1022A00009002064A16B0844A06300212046FEF7CA
:1022B000FBF894F824000028A9D068690028A6D16A
:1022C00094F82400216840F08000A1F84C0084F8C4
:1022D000248035E1018804F58475ADF80010BDF85F
:1022E000001009051ED5B0F850302A78062101EB00
:1022F000C201194406EB4101405A04F5F671C0F3DE
:102300000903AB61AA88206800F028F920680188D9
:1023100040F68F72114001802046FEF7ECFD0FE180
:10232000A1E054E0BDF800100904D2D5028840F6BF
:102330008F710A4002802068B0F850302A78062158
:1023400001EBC201194406EB4101405A83059B0D84
:10235000AB610BD0AA8801E052E062E029692068F5
:1023600000F0FCF8A969286908442861002120468A
:10237000FEF7A3F82068B0F85010891D06EB410164
:102380004218E8683E280BD9C0F34F11C00601D1AE
:10239000491E89B24FF4004040EA812080B209E032
:1023A000C0F34F01C00701D0491C89B24FF6FF703E
:1023B00000EA81201060216808884BF68F72104077
:1023C00080F4405048F2800210430880B8E0D4F80E
:1023D00000C0BCF850102A78062000EBC200084468
:1023E00006EB40003CF80000C0F309005FEA000A79
:1023F00023D00346AA886046296900F0AFF81CE0A4
:10240000062202EBC101194406EB4101415AC1F316
:1024100009015FEA010A04D02A895346296900F0BC
:102420009DF82978226832F8210048F68F73184009
:1024300048F2C003184322F82100A96901EB0A0001
:10244000A861296901EB0A022A616B6913B1E96885
:10245000514504D929782046FEF72FF803E0297862
:102460002046FEF7CBFABDF80000000668D5C7EBA2
:10247000C70004EB8005206830F8271001EA0B0143
:1024800020F8271095F8320028350028206812D04F
:10249000297830F82120B0F8503052061ED509EBCB
:1024A000C101194406EB4101405A83059B0DAB6104
:1024B00024D0EA881EE0B0F850302A7809EBC20137
:1024C000194406EB4101405A83059B0DAB6121D0B5
:1024D000AA882969206800F050F81BE0062202EB68
:1024E000C101194406EB4101405A83059B0DAB61C4
:1024F00004D02A892969206800F03FF829782068EB
:1025000030F8212048F68F731A404CF280031A43AA
:1025100020F821202068B0F850302A7809EBC20159
:10252000194406EB4101405AC0F30900A86129692A
:102530000A182A6129786B69204663B1FEF716FBF9
:102540002068B0F84410ADF8041009043FF560AEFF
:102550000020BDE8FC9FFDF7A7FFF1E75B1C00EB47
:1025600042005B0800F5806006D000BF30F8042B05
:1025700021F8022B5B1EF9D1704710B55B1C00EBF4
:1025800042005B0800F5806009D011F8012B5B1E4A
:1025900011F8014B42EA042220F8042BF5D110BDBA
:1025A00010B5FDF7E7FEBDE81040FFF724BA70B59F
:1025B0009EB001200525CDE90005002402260294E5
:1025C0000004CDE907604FF4E01009906846FEF77B
:1025D00029FF7002CDE91B401D94CDE91956022157
:1025E00019A8FEF78FFD30040A9018940AA8FEF788
:1025F000A1FCFEF7CBFE4FF47A71B0FBF1F0FFF7D0
:10260000E6F90420FFF7D6F91EB070BD1448016842
:1026100041F4700101601348016841F0010101605B
:102620004168114A114041600168104A114001603F
:10263000016821F480210160416821F4FE014160BC
:10264000C16A21F00F01C162016B094A11400163A7
:10265000002181600249C003803908607047000092
:1026600088ED00E0001002400CC07FF8FFFFF6FE8E
:10267000CCFC00FF0148FFF7D9BB0000500500204B
:102680002DE9F0430268214B214D224E224C4FF0A0
:102690008049984207D0484505D0A84203D0B042AF
:1026A00001D0A04203D122F070074A683A431B4F81
:1026B000DFF86CC0DFF86C8098420DD048450BD035
:1026C000A84209D0B04207D0A04205D0B84203D0FA
:1026D000604501D0404503D122F44075CA682A43C1
:1026E00002608A68C2620A688262984207D0A04289
:1026F00005D0B84203D0604501D0404501D10969F9
:10270000016301214161BDE8F0830000002C01401C
:102710000004004000080040003401400040014037
:10272000004401400048014010B50123046A8B4079
:102730009C430462036A8A401343036210BD10B5D0
:10274000846842EA032224F47F440A4322438260DD
:1027500010BD826822F070020A4342F007018160D6
:10276000704710B5036A046A24F0010404628469A6
:1027700024F0F00444EA021423F00A020A438461BC
:10278000026210BD70B5046A24F001040462846919
:10279000056A124EB0420ED0B0F1804F0BD0104EF1
:1027A000B04208D00F4EB04205D00F4EB04202D01A
:1027B0000E4EB04203D124F00304144301E044F070
:1027C00001041A0724F0F00444EA126225F00A0317
:1027D00001F00A0119438261016270BD002C0140C1
:1027E0000004004000080040003401400040014067
:1027F00010B5036A23F0100303628369046A23F4AB
:10280000704343EA023224F0A00343EA01118261DB
:10281000016210BD30B5046A24F0100404628469BA
:10282000056A24F4407444EA022222F470444FF60C
:10283000FF7202EA03322243A02425F0A00304EA37
:10284000011119438261016230BD10B5D0F8142224
:1028500052689047002010BD134610B50A4600216B
:1028600000F0BEFA002010BD134610B50A46002144
:1028700000F03CFB002010BD10B50446802100F0A4
:102880001EFB2046BDE81040002100F018BB10B52B
:1028900005210023C0F8F4111A46194600F0A0FAE9
:1028A000002010BD10B502238261C0F8F431C2616E
:1028B00013460A46002100F019FB002010BD10B598
:1028C00004210023C0F8F4111A46194600F00EFB4B
:1028D000002010BD10B50A46024903A000F0D4F84C
:1028E000004810BD3403002048494420436F6E6601
:1028F000696700001220088000487047200000200F
:1029000010B50A46024903A000F0BEF8004810BD09
:102910003403002048494420496E7465726661633F
:102920006500000004200880004870471C0000205B
:1029300010B50A46024903A000F0A6F8004810BDF1
:102940003403002053544D6963726F656C65637482
:10295000726F6E696373000010B50A46024903A0E6
:1029600000F092F8004810BD3403002053544D335A
:10297000322050504D2D5553422041646170746592
:102980007200000010B50A46024903A000F07CF86E
:10299000004810BD3403002030303030303030304B
:1029A0003030314100000000F8B5044648880D463B
:1029B000010A08294BD2DFE801F04A0409174A4A04
:1029C0004048D4F81012207C0A6832E0207C0226AD
:1029D0000028D4F8140205D0C16A68468847014629
:1029E000467041E0816AF8E7C0B206282FD2DFE8DE
:1029F00000F003080D12171CD4F81012207C4A684E
:102A000017E0D4F81012207C8A6812E0D4F8101273
:102A1000207CCA680DE0D4F81012207C0A6908E016
:102A2000D4F81012207C4A6903E0D4F81012207CFC
:102A30008A6969469047014616E0207C38B9D4F887
:102A40001402416B68468847F5E7207C20B129468F
:102A50002046FFF711FFF8BDD4F81402016B684659
:102A60008847014607204870BDF800000028F2D0D2
:102A7000EA88002AEFD0824200D90246ADF8002051
:102A80002046FFF70FFFF8BD70B5002300281DD0CA
:102A90000446002502E06D1CEDB2641C2678002E71
:102AA000F9D1022404EB45041480CC545B1C0322AE
:102AB000CA5400245B1C06E0CA545B1CDAB28C5476
:102AC000521CD3B2401C0278002AF5D170BDD0F858
:102AD0001802002101730846704710B5044604210E
:102AE00000F0A8F8D4F8180220B100F05FFB002035
:102AF000C4F81802002010BD222101800048704750
:102B0000800000200A21018000487047B0000020AA
:102B100070B50546002404230322812100F056F9F4
:102B2000102000F045FBC5F8180218B10021017310
:102B3000204670BD0124FBE710B5134690F8FC4118
:102B4000D0F81822032C07D1147B2CB9012414735C
:102B50000A46812100F0CAF9002010BD70B500229C
:102B60000D78D0F81832144615F060051BD0202DD2
:102B700040D14A78022A13D0032A0AD00A2A0BD05D
:102B80000B2A03D0FFF778FE022070BD887818600A
:102B900030E00122194624E04888000A586029E004
:102BA0000122191D1DE04D78062D04D00A2D1BD0E1
:102BB0000B2D1FD11CE04B882225B5EB132F05D11F
:102BC000CA883D2A00D93D220B4C09E02125B5EBEE
:102BD000132F05D1084CCA88183C092A00D90922AC
:102BE0002146FFF75FFE05E0012203F10801F8E747
:102BF00088789860002070BDBC00002010B580B1BE
:102C0000D0F8143213B10023C0F8143209B1C0F85F
:102C10001012012180F8FC11027000F097F80020DA
:102C200010BD022010BD10B5D0F82002FDF710FD38
:102C3000002010BD10B5D0F82002FDF748FC0020A0
:102C400010BD2DE9F0411746044641B1D4F81402F5
:102C50004269EAB394F8FC0103283DD03EE0D4F881
:102C6000F411002504F1140002292CD1D0E90263EB
:102C70009E4207D9F31A83609AB239462046FFF77D
:102C8000F3FD20E04068B0FBF3F103FB110169B9EB
:102C900098420BD3D4F8F811884207D2002211468B
:102CA0002046FFF7E1FDC4F8F8510CE0D4F8140217
:102CB000C16829B194F8FC01032801D12046884756
:102CC0002046FFF7E4FD94F80002012806D100E059
:102CD00004E084F8005201E0204690470020BDE85F
:102CE000F08170B51546044641B1D4F814028269EA
:102CF0003AB394F8FC01032824D025E0D4F8F41169
:102D000004F5827003291FD1D0E902218A420BD930
:102D1000531A83600846834200D303469AB2294679
:102D20002046FFF799FD0FE0D4F81402016929B19C
:102D300094F8FC01032801D1204688472046FFF77C
:102D4000BEFD01E020469047002070BD10B515493A
:102D500004460222C1F81C02C0F820121248086082
:102D60000820C1E901020020C1E90302886108626C
:102D7000084604F50874FEF71BF8002218231146D4
:102D80002068FDF773FB5823002280212068FDF79F
:102D90006DFB4FF48073002281212068FDF766FBF4
:102DA000002010BD14010020005C00400A0601F064
:102DB0007F01D0F82002C1EBC10100EB810002D5F8
:102DC00090F82A00704790F80A01704710B51C4629
:102DD0001346D0F820022246FDF792FC002010BDD9
:102DE00010B5D0F82002FDF709FE002010BD70B527
:102DF0000022044640231146FFF7E8FF40252B46FA
:102E0000002280212046C4F81051FFF7DFFF012087
:102E1000256284F8FC01D4F8180228B1D4F8140211
:102E20002179426820469047002070BD90F8FD113E
:102E300080F8FC110020704710B590F8FC110329B0
:102E400004D1D0F81412C96901B18847002010BD1F
:102E500001740020704710B5D0F82002FEF735F855
:102E6000002010BD70B5044600F50270054600F064
:102E700044F80120C4F8F401B4F80E02C4F8F801D3
:102E800094F8080210F01F010AD001290DD0022980
:102E900010D000F08001204600F011F8002070BD35
:102EA0002946204600F08FF8F8E72946204600F032
:102EB00063F9F3E72946204600F0FEF8EEE710B587
:102EC000D0F82002FDF70DFE002010BD10B5D0F89F
:102ED0002002FEF717F8002010BD90F8FC1180F8D2
:102EE000FD11042180F8FC110020704710B5D0F8C6
:102EF0002002FDF73BFE002010BD0A7802704A78E0
:102F000042708A78CB7802EB032242800A794B79AF
:102F100002EB032282808A79C97902EB0121C18008
:102F200070470246002011B1C2F814127047022007
:102F3000704710B5D0F8142202241AB112689047D5
:102F400000B90024204610BD70B50E461A4D897890
:102F500004462970012928D894F8FC01022802D0DF
:102F6000032822D105E099B10320616084F8FC01B7
:102F700009E091B1606888420AD0C1B22046FFF7EB
:102F800064FC297861602046FFF7D3FF02280CD04B
:102F90002046BDE87040FFF792BC022084F8FC0197
:102FA00020466160FFF751FCF2E731462046BDE85C
:102FB0007040FFF761BC0000F900002010B5FFF77A
:102FC00085FF002010BD2DE9F04100264B7801253A
:102FD00032460A2B43D2DFE803F03C584251420804
:102FE00005422A27FFF7E0FC63E004468888C8B959
:102FF000C888B8B9887800F07F0794F8FC010328E6
:1030000010D084F8FE7139462046FFF724FF204691
:10301000FFF755FC1FB1022084F8FC0149E084F859
:10302000FC5146E020461AE0FFF78EFF41E0CB88D6
:10303000012B14D190F8FC31022B02D0032B0ED1BE
:1030400004E08260012200F1080114E00122011D68
:1030500011E090F8FC21022A04D0032A02D0FFF7E5
:103060000BFC26E0C560D0F8041209B10321C16051
:10307000022200F10C01FFF715FC1AE00446488813
:10308000012816D1C4F804520BE0044690F8FC0164
:10309000022801D00328C5D14888012809D1C4F8E5
:1030A0000422D4F814028268204690472046FFF795
:1030B00006FC3046BDE8F08170B50D46044609793E
:1030C0006878002678B3012816D0032836D194F802
:1030D000FC01022817D003282CD1688828B921B117
:1030E000802902D02046FFF7EAFED4F814022946D0
:1030F00082682046904712E094F8FC01022802D032
:10310000032817D103E0C9B180291BD116E06888D4
:10311000A0B9480603D02046FFF785FDE5E7204625
:10312000FFF7CDFB0AE0FFE794F8FC01022807D087
:1031300003280BD029462046FFF79EFB304670BD82
:103140004806FBD02046FFF7BAFEF7E7080601F075
:103150007F0004EB001501D5143501E005F58275FB
:103160002046FFF723FE00B10120286002222946F5
:103170002046FFF797FBE1E770B5054690F8FC01A4
:103180000C4603280DD1207901280AD8D5F814025D
:10319000826828469047E08830B92846FFF78FFBC1
:1031A00002E02846FFF768FB002070BD7047000072
:1031B00000487047000100200148FDF782BD000073
:1031C0001401002002E008C8121F08C1002AFAD129
:1031D00070477047002001E001C1121F002AFBD197
:1031E00070470000FDF7CEF8FFF7E1F9FEF74AFF60
:1031F000FEF7A0FFFEF7D8FF00210848FEF7F0FD1C
:10320000074C002560780028FCD004490A220C39BC
:103210000448FFF791FC6570F4E7000050050020BA
:10322000320000208C050020000000000102030491
:10323000010203040607080902030405060708093A
:103240000A0B0C0D0E0F10100102030405060708EF
:10325000090A0B0C0D0E0F10783200080000002038
:1032600000010000C431000878330008000100208C
:10327000B00A0000D4310008F5280008252900080C
:10328000312900085929000885290008D528000897
:103290000129000804030904120100020000004093
:1032A0008304FF57000201020301000000127A00AC
:1032B00000000000000000000102030406070809E6
:1032C000112B0008DB2A00085D2B0008000000001D
:1032D00000000000CF2A00080000000000000000ED
:1032E0000000000000000000F92A0008F92A000888
:1032F000F92A0008052B000809022200010100E05C
:10330000320904000001030102000921110100013A
:10331000223D000705810304000A00000921110174
:103320000001223D000000000A06000200000040EB
:103330000100000005010905A1010901A1000930F2
:103340000931150026E803751095028102C0A1001D
:1033500009330934150026E803751095028102C06F
:103360000509190129101500250175019510810223
:08337000C00000000000000095
:040000050800018965
:00000001FF
